:100000000C94FA000C941B010C941B010C941B0122
:100010000C941B010C941B010C941B010C941B01F0
:100020000C941B010C941B010C941B010C941B01E0
:100030000C941B010C941B010C941B010C941B01D0
:100040000C941B010C941B010C941B010C941B01C0
:100050000C941B010C941B010C941B010C941B01B0
:100060000C941B010C941B010C941B010C941B01A0
:100070000C941B010C941B010C941B010C941B0190
:100080000C941B010C941B010C941B010C941B0180
:100090000C941B010C941B010C941B010C941B0170
:1000A0000C941B010C941B010C941B010C941B0160
:1000B0000C941B010C941B010C941B010C941B0150
:1000C0000C941B010C941B010C941B010C941B0140
:1000D0000C941B010C941B010C941B010C941B0130
:1000E0000C941B010C941B010C941B010C941B0120
:1000F0000C941B010C941B010C941B010C941B0110
:100100000C941B010C941B010C941B010C941B01FF
:100110000C941B010C941B010C941B010C941B01EF
:100120000C941B010C941B010C941B010C941B01DF
:100130000C941B010C941B010C941B010C941B01CF
:100140000C941B010C941B010C941B010C941B01BF
:100150000C941B010C941B010C941B010C941B01AF
:100160000C941B010C941B010C941B010C941B019F
:100170000C941B010C941B010C941B010C941B018F
:100180000C941B010C941B010C941B010C941B017F
:100190000C941B010C941B010C941B010C941B016F
:1001A0000C941B010C941B010C941B010C941B015F
:1001B0000C941B010C941B010C941B010C941B014F
:1001C0000C941B010C941B010C941B010C941B013F
:1001D0000C941B010C941B010C941B010C941B012F
:1001E0000C941B010C941B010C941B010C941B011F
:1001F0000C941B0111241FBECFEFDFE3DEBFCDBF88
:1002000000E00CBF10E2A0E0B0E2E2E9F2E000E0C2
:100210000BBF02C007900D92A030B107D9F710E2D2
:10022000A0E0B0E201C01D92A030B107E1F70E944A
:100230001D010C9447010C94000088ED77E084BF09
:10024000709350008091510087708730D9F788ED06
:1002500071E084BF7093600084BF7093680084BFB6
:100260007093400088ED71E084BF70939600109207
:10027000E0068FEF80932007E0E2F7E09091E80638
:10028000892F81568A3108F490529483F7CFF894DD
:02029000FFCF9E
:00000001FF
