:03020000020208EF
:0302610002020393
:0502030012103680FE20
:03000000020200F9
:0100030032CA
:01000B0032C2
:0100130032BA
:01001B0032B2
:0100230032AA
:01002B0032A2
:01003300329A
:01003B003292
:01004300328A
:01004B003282
:01005300327A
:01005B003272
:01006300326A
:0101000032CC
:0101040032C8
:0101080032C4
:01010C0032C0
:0101100032BC
:0101140032B8
:0101180032B4
:0101200032AC
:0101240032A8
:0101280032A4
:01012C0032A0
:01013000329C
:010134003298
:010138003294
:01013C003290
:01014000328C
:010148003284
:01014C003280
:01015000327C
:010154003278
:010158003274
:01015C003270
:01016000326C
:01017000325C
:010174003258
:010178003254
:01017C003250
:01018000324C
:010184003248
:010188003244
:01018C003240
:01019000323C
:010194003238
:010198003234
:01019C003230
:0101A000322C
:0101A8003224
:0101AC003220
:0101B000321C
:0101B4003218
:0101B8003214
:08026400AA82AB837C007D003F
:0B026C00C3EC9AED9B50147EB07F04A1
:050277001EBEFF011F87
:0B027C00EE4F70F70CBC00E80D80E5B1
:010287002254
:08028800AA82AB837C007D001B
:0B029000C3EC9AED9B50147E0A7F0027
:05029B001EBEFF011F63
:0B02A000EE4F70F70CBC00E80D80E58D
:0102AB002230
:0E02AC0075AF0790E67BE090E67CF0DAF32277
:0202BA007A00C8
:0302BC00BAFF0086
:0D02BF00500B90E678E0FB20E0030A80F091
:0C02CC0090E678E0FA20E204EA20E10B62
:0B02D80090E678E04440F075820122BF
:0402E30075820022FE
:0202E7007A009B
:0302E900BAFF0059
:0D02EC00500B90E678E0FB20E0030A80F064
:0E02F90090E678E0FA30E20B90E678E04440C0
:05030700F075820122E7
:04030C0075820022D4
:020310007A0071
:03031200BAFF002F
:0E031500500F90E678E0FB20E2047582002293
:030323000A80EC61
:0403260075820122B9
:02032A007A0057
:03032C00BAFF0015
:0E032F00500F90E678E0FB20E6047582002275
:03033D000A80EC47
:04034000758201229F
:08034400AA82C3E49AE433FA33
:0D034C0090E678E04480F0C00212031090AB
:0E035900E67974A2F01202BAE582D0027012A8
:0C036700E508600A90E678E04440F012DF
:02037300032A5B
:04037500758200226B
:0E037900EA600C90000AC002120288D00280D6
:01038700C4B1
:0C038800E508600890E678E0FA4440F0D8
:04039400758201224B
:0C039800AA82AB837C00E50B7003F582A9
:0103A4002236
:0C03A500750800758264C002C003C0042B
:0E03B100120344E582D004D003D002600302A0
:0203BF00049B9D
:0C03C10090E679E50AF0C002C003C00419
:0E03CD001202BAE582D004D003D0026003020F
:0203DB00049B81
:0C03DD0090E679E509F0C002C003C004FE
:0E03E9001202BAE582D004D003D002600302F3
:0203F700049B65
:0E03F90090E678E04440F0C002C003C0041259
:0D040700032A90E678E04480F01203109084
:0E041400E67974A3F01202BAE582D004D00398
:0E042200D002707590E679E08A828B83F0C07C
:0E04300002C003C0041202E7E582D004D0032C
:05043E00D0027059FD21
:0C044300C3ED950B502A90E679E08A8208
:0E044F008B83F0A3AA82AB83C002C003C0045B
:0E045D00C0051202E7E582D005D004D003D01E
:08046B0002702D0D8D0480D0FC
:0E04730090E678E04420F090E679E0C00412B4
:0E04810002E7E582D004701290E678E0444075
:0C048F00F090E679E0C00412032AD004CB
:03049B008C82222E
:0C049E00AA82AB837C00750800758264A4
:0E04AA00C002C003C004120344E582D004D097
:0804B80003D0026003020551AC
:0C04C00090E679E50DF0C002C003C00416
:0E04CC001202BAE582D004D003D0026003020F
:0204DA000551CA
:0C04DC0090E679E50CF0C002C003C004FB
:0E04E8001202BAE582D004D003D002705CFD8F
:0C04F600C3ED950E50478A828B83E0FE18
:0E050200A3AA82AB8390E679EEF0903204E07B
:0D051000FFEE2FF0903202E0FEA3E0FF901E
:0E051D00320274012EF0E43FA3F0C002C003CE
:0E052B00C004C0051202BAE582D005D004D08B
:0A05390003D00270130D8D0480B38F
:0E05430090E678E04440F0C00412032AD00491
:030551008C822277
:0A055400903272E0FA903200E0F5F8
:06055E0009A3E0F50A8A82
:0C0564000B90E740C002120398AB82D05D
:0E057000027C00903200E0FDA3E0FE9032001D
:0A057E00EA2DF0EC3EA3F08B822280
:0B058800AA82903200E0F50CA3E0F521
:090593000D8A0E90E740C002122F
:0E059C00049ED0027B00903200E0FCA3E0FD44
:0B05AA00903200EA2CF0EB3DA3F022A1
:0E05B500903205E0FAA3E0FB741F5A75F003C4
:0905C300A42409FCE43432FD908B
:0B05CC003269ECF0A3EDF0759B6B7E34
:0A05D7006B7F328F9A8C068D078E21
:0D05E1009E8D9DC0027A031202ACD00290E4
:0B05EE00320574012AF0E43BA3F02268
:0E05F900903205E4F0A3F09032077420F090E9
:0906070032087403F090326974AA
:0706100009F0A37432F0228F
:0A061700903272E0FA700302063C14
:0E06210090326EE0FBA3E0FC8B9B8C9A759EE2
:0D062F0040759DE7C0027AF01202ACD002C7
:0E063C0090326EE0FBA3E0FC90326EEA2BF0F1
:07064A00E43CA3F08A8222C8
:01006C00286B
:01006D000191
:04006E005A54455843
:04007200000000008A
:010076000089
:010077000187
:0600780009000000000079
:0C007E0000000000000000000000000076
:0A008A00303030303030303030308C
:0E06510090E683E4F07420F07410F07430F042
:0E065F0090E6837401F07421F07411F0743190
:02066D00F02279
:0A066F00AA82E51024E05003751084
:010679001F61
:0C067A0075AF078A9B850F9A759E41752D
:0A0686009DE790E67C7403F07A0013
:0C069000C3EA9510501190E67BE0FB904F
:0B069C00E67CF090E67CE4F00A80E9C8
:0B06A700E5100425E0FA90E740F09019
:0E06B200E7417403F090E68AE4F090E68BEAEC
:0206C000F02226
:0E06C200903270E0FAA3E0FBC374409AE49B10
:0806D00050067C407D0080040F
:0406D8008A048B0500
:0E06DC00903272ECF07D00903270EAC39CF018
:0506EA00EB9DA3F022CE
:0E06EF00903273E0FABA3924903204E4F090AD
:0D06FD003202F0A3F090E6BBE0FB7A009023
:0E070A00E6BAE0FC7D00903200EC4AF0ED4BC8
:03071800A3F02229
:08071B0090E6A0E04401F02289
:0C072300C020C0E0C0F0C082C083C00253
:0E072F00C003C004C005C006C007C000C00162
:0E073D00C0D075D00090E6B9E0FA903273F0AB
:0E074B0090E6B57401F090E6B9E0FA24F350A0
:0407590003020AD9B4
:07075D00EA2A2A90076473E9
:0707640002078B02083F02AF
:06076B000AD90208BC02DD
:060771000AD9020AD902B8
:060777000954020A6F02A2
:06077D000A71020A82026B
:060783000A87020A980239
:020789000A9DC7
:0A078B0090E6B8E0FABA8002800D93
:05079500BA8102801E84
:05079A00BA8202802F6D
:03079F00020AD972
:0E07A20090E740E4F090E741F090E68AF09096
:0807B000E68B7402F0020AD985
:0E07B80090E740E4F090E741F090E68AF09080
:0807C600E68B7402F0020AD96F
:0C07CE0090E6BCE0FA600FBA010280194E
:0507DA00BA8002800559
:0507DF00BA812F801E0D
:0E07E40090E6A0E0FA53020190E740EAF080B0
:0107F2003ACC
:0E07F30090E6A1E0FA53020190E740EAF080A0
:010801002BCB
:0E08020090E6A2E0FA53020190E740EAF0808F
:010810001CCB
:0E08110090E6BCE0C31314540324A3F582E464
:0E081F0034E6F583E0FA53020190E740EAF078
:0E082D0090E741E4F090E68AF090E68B7402CA
:04083B00F0020AD9E4
:0A083F0090E6B8E0FABA0202800366
:03084900020AD9C7
:09084C0090E6BAE06003020AD94B
:0C08550090E6BCE0FA600FBA01028015CA
:05086100BA80028005D1
:05086600BA8123801699
:0B086B0090E6A0E0FA54FEF0020AD96B
:0B08760090E6A1E0FA54FEF0020AD95F
:0B08810090E6A2E0FA54FEF0020AD953
:0E088C0090E6BCE0C31314540324A3FAE43432
:0E089A00E6FB90E6BCE0C31314540324A3F560
:0E08A80082E434E6F583E0FC5304FE8A828B82
:0608B60083ECF0020AD9F8
:0A08BC0090E6B8E0FABA02028003E9
:0308C600020AD94A
:0908C90090E6BAE06003020AD9CE
:0C08D20090E6BCE0FA600FBA010280144E
:0508DE00BA8002800554
:0508E300BA8120801421
:0A08E80090E6A0E0FA4401F0804120
:0A08F20090E6A1E0FA4401F080371F
:0A08FC0090E6A2E0FA4401F0802D1E
:0E09060090E6BCE0C31314540324A3FAE434B7
:0E091400E6FB90E6BCE0C31314540324A3F5E5
:0E09220082E434E6F583E0FC4304FE8A828B17
:0309300083ECF065
:0E09330090E6BCE05480C423541FFA90E6BC4A
:0E094100E0FB740F5B420290E683EAF0742044
:05094F004AF0020AD984
:0A09540090E6BBE0FABA0102801938
:05095E00BA0202802630
:05096300BA0302804D03
:06096800BA0603020A2892
:06096E00BA0703020A3A79
:03097400020A650F
:0A0977007AB47B1090E6B3EBF09029
:08098100E6B474B4F0020AD9D7
:0B09890090E680E0FA30E7127AD07BA5
:0A0994001090E6B3EBF090E6B474A7
:05099E00D0F0020AD9AF
:0A09A3007AF27B1090E6B3EBF090BF
:0809AD00E6B474F2F0020AD96D
:0A09B50090E6BAE0FABA0102800FE2
:0509BF00BA0202801CD9
:0509C400BA03028029C6
:0509C900BA044A80366B
:0609CE0075828B7A8B7B21
:0409D400108B0F7500
:0609D800100512066F027B
:0209DE000AD934
:0609E0007582907A907B05
:0409E600108B0F75EE
:0609EA00101912066F0255
:0209F0000AD922
:0A09F20075828A7A8A7B008B0F75EC
:0609FC00100A12066F0252
:020A02000AD90F
:060A04007582A97AA97BAE
:040A0A00108B0F75C9
:060A0E00100A12066F023F
:020A14000AD9FD
:0A0A16007A147B1190E6B3EBF09028
:080A2000E6B47414F0020AD9D7
:0A0A28007AC67B1090E6B3EBF09065
:080A3200E6B474C6F0020AD913
:0B0A3A0090E680E0FA30E7127AF27BD1
:0A0A45001090E6B3EBF090E6B474F5
:050A4F00F2F0020AD9DB
:0A0A54007AD07B1090E6B3EBF0902F
:070A5E00E6B474D0F08074CF
:0A0A650090E6A0E0FA4401F0806A78
:020A6F0080689D
:0E0A710090E740E4F090E68AF090E68B740186
:030A7F00F08057AD
:050A8200120651805234
:0E0A870090E740E4F090E68AF090E68B740170
:030A9500F08041AD
:050A9800120651803C34
:0E0A9D0090E6B8E0FABA823490E6BCE0C313EB
:0B0AAB0014540325E02475F582E434A8
:0C0AB60032F583E4F0A3F090E685E090B8
:0D0AC200E740F090E684E0FA90E741F09004
:0A0ACF00E68AE4F090E68B7402F072
:0B0AD90090E6B8E0FABA4003020BC937
:050AE400BAC00280030E
:030AE900020BF30A
:0E0AEC0090E6BFE0FB7A0090E6BEE0FC7D00E5
:0E0AFA00903270EC4AF0ED4BA3F01206C29061
:090B0800E6B9E0FABA22028013FA
:060B1100BA2803020BA547
:050B1700BA3802802540
:050B1C00BA3A02804915
:030B2100020BBF05
:0E0B240090E6B5E4F090E68AF090E68B742837
:0D0B3200F090E6B3E4F090E6B4746CF002CD
:020B3F000BF3B6
:0E0B410090E6BBE0FB7A0090E6BAE0FC7D0097
:0E0B4F00903200EC4AF0ED4BA3F090E68AE401
:0D0B5D00F0120554E58290E68BF0020BF3D8
:0E0B6A00903202E0FAA3E0FB8A0490E740EC30
:0D0B7800F08B0290E741EAF0903204E0902B
:0C0B8500E742F07508017582001203447D
:0D0B9100AA8290E743EAF090E68AE4F09033
:070B9E00E68B7404F0804EA9
:080BA50090326E7405F0A37498
:0C0BAD0032F090E68AE4F0120617E582B0
:060BB90090E68BF0803491
:0A0BBF0090E6A0E0FA4401F0802A5D
:0C0BC90090E6BFE0700690E6BEE060160B
:0E0BD5009032747401F090E68BE4F05391EFCF
:080BE30090E65D7401F0801939
:080BEB001206EF90E68BE4F026
:0E0BF3005391EF90E65D7401F090E6A0E0FAF9
:030C01004480F03C
:0E0C0400D0D0D001D000D007D006D005D0044B
:0D0C1200D003D002D083D082D0F0D0E0D04B
:020C1F00203281
:0E0C2100C0E0C082C0835391EF90E65D740284
:080C2F00F0D083D082D0E03246
:0E0C3700C0E0C082C0835391EF90E65D74046C
:080C4500F0D083D082D0E03230
:0E0C4D00C0E0C082C0835391EF90E65D740852
:080C5B00F0D083D082D0E0321A
:0E0C6300C0E0C082C0835391EF90E65D741034
:080C7100F0D083D082D0E03204
:0E0C7900C0E0C082C0835391EF90E65D74200E
:080C8700F0D083D082D0E032EE
:0E0C8F00C0E0C082C0835391EF90E65D7440D8
:080C9D00F0D083D082D0E032D8
:0C0CA500C020C0E0C0F0C082C083C002CC
:0E0CB100C003C004C005C006C007C000C001DB
:0E0CBF00C0D075D000C2E81206C2903273E0B9
:060CCD00FABA2802801AA9
:050CD300BA38028005A3
:050CD800BA3A22802958
:0E0CDD0090E68AE4F0120554E58290E68BF072
:020CEB0080196E
:0E0CED0090E68AE4F0120617E58290E68BF09E
:020CFB0080096E
:090CFD0090E68AE4F090E68BF029
:0E0D06005391EF90E65F7401F0D2E8D0D0D0A8
:0E0D140001D000D007D006D005D004D003D007
:0C0D220002D083D082D0F0D0E0D020328C
:0C0D2E00C020C0E0C0F0C082C083C00242
:0E0D3A00C003C004C005C006C007C000C00151
:0E0D4800C0D075D000C2E8903274E0FA60208E
:0D0D5600903274E4F090E6BFE0FB7A00906C
:0E0D6300E6BEE0FC7D00903270EC4AF0ED4BF5
:050D7100A3F01206EFE3
:0E0D76001206C2903273E0FABA390990E68B89
:060D8400E0F58212058873
:0E0D8A0090E68BE4F05391EF90E65F7402F078
:0E0D9800903270E0FAA3E0FB4A700890E6A0EB
:050DA600E0FA4480F0BA
:0E0DAB00D2E8D0D0D001D000D007D006D005BD
:0E0DB900D004D003D002D083D082D0F0D0E09E
:030DC700D0203207
:0E0DCA00C0E0C082C0835391EF90E65F7404D6
:080DD800F0D083D082D0E0329C
:0E0DE000C0E0C082C0835391EF90E65F7408BC
:080DEE00F0D083D082D0E03286
:0E0DF600C0E0C082C0835391EF90E65F74109E
:080E0400F0D083D082D0E0326F
:0E0E0C00C0E0C082C0835391EF90E65F742077
:080E1A00F0D083D082D0E03259
:0E0E2200C0E0C082C0835391EF90E65F744041
:080E3000F0D083D082D0E03243
:0E0E3800C0E0C082C0835391EF90E65F7480EB
:080E4600F0D083D082D0E0322D
:0E0E4E0090E680E04408F090E6007412F05345
:0D0E5C008EF8C2AFC2E89000437402F0901F
:0E0E690000447401F090004574B8F090E66803
:0C0E7700E04408F09001007402F07A23BF
:0C0E83007B078B04900101ECF090010251
:0B0E8F00EAF09001047402F07A217B6D
:0C0E9A000C8B04900105ECF0900106EABE
:0A0EA600F09001087402F07A377B27
:0C0EB0000C8B04900109ECF090010AEAA0
:0A0EBC00F090010C7402F07A4D7BF7
:0C0EC6000C8B0490010DECF090010EEA82
:0A0ED200F09001107402F07A637BC7
:0C0EDC000C8B04900111ECF0900112EA64
:0A0EE800F09001147402F07A797B97
:0C0EF2000C8B04900115ECF0900116EA46
:0A0EFE00F09001187402F07A8F7B67
:0C0F08000C8B04900119ECF090011AEA27
:0A0F1400F09001207402F07AA57B32
:0C0F1E000C8B04900121ECF0900122EA01
:0A0F2A00F09001247402F07A2E7B8F
:0C0F34000D8B04900125ECF0900126EAE2
:0A0F4000F09001287402F07ACA7BD9
:0C0F4A000D8B04900129ECF090012AEAC4
:0A0F5600F090012C7402F07AE07BA9
:0C0F60000D8B0490012DECF090012EEAA6
:0A0F6C00F09001307402F07AF67B79
:0C0F76000D8B04900131ECF0900132EA88
:0A0F8200F09001347402F07A0C7B49
:0C0F8C000E8B04900135ECF0900136EA69
:0A0F9800F09001387402F07A227B19
:0C0FA2000E8B04900139ECF090013AEA4B
:0A0FAE00F090013C7402F07A387BE9
:0C0FB8000E8B0490013DECF090013EEA2D
:0E0FC400F05391EF90E65D747FF090E65CE0F4
:0E0FD200FA447FF090E65F74FFF090E65E74E4
:0E0FE000FFF0D2E8D2AF90E61174A0F000004E
:0D0FEE00000090E61074A0F00000000090DC
:0E0FFB00E612E4F00000000090E613E4F000BF
:0D10090000000090E614E4F00000000090EC
:0E101600E615E4F0000000001205F990E680F7
:0E102400E04482F09000FA12026490E680E050
:0410320054F7F0225D
:07103600120E4E7A007B0050
:0E103D008A0490326BECF08B0490326CECF075
:0E104B00C002C0031205B5D003D0020ABA00DD
:02105900010B89
:02105B007C0017
:03105D00BC640070
:0E10600050DB903269E0FDA3E0FE8D828E83AE
:0E106E00A3A3ECF090000AC002C003C004125D
:0B107C000264D004D003D0020C80D628
:05108B005A5445580015
:0E109000646562756720666F7220455A2D55A3
:0B109E005342206465766963657300AF
:0A10A90028756E6B6E6F776E2900DC
:0110B300003C
:0E10B40012010002FFFFFF401A22000100009F
:0410C2000102030123
:0A10C6000A060002FFFFFF400100D0
:0E10D00009022000010104C0320904000002E0
:0E10DE00FFFFFF000705810200020007050169
:0410EC0002000200FC
:0210F0000000FE
:0E10F20009022000010104C0320904000002BE
:0E110000FFFFFF000705810240000007050108
:04110E00024000009B
:021112000000DB
:0411140004030000D0
:021118000000D5
:01111A0000D4
:01111B00FFD4
:01111C0000D2
:08111D000000000000000000CA
:06023700E478FFF6D8FD9B
:08021500790DE94400601B7A39
:05021D000190111878AA
:0302220070759262
:0A02250032E493F2A308B8000205CA
:08022F0092D9F4DAF27592FF96
:08023D007800E84400600A7932
:03024500007592AF
:0602480032E4F309D8FCCA
:08024E007870E84400600C79AF
:0B02560001903200E4F0A3D8FCD9FABC
:03020800758120DD
:0A020B00121087E58260030202036F
:04108700758200224C
:00000001FF
